{
  "_format": "hh-sol-artifact-1",
  "contractName": "DeliveryEscrow",
  "sourceName": "contracts/DeliveryEscrow.sol",
  "abi": [
    {
      "anonymous": false,
      "inputs": [
        {
          "indexed": false,
          "internalType": "string",
          "name": "shipmentId",
          "type": "string"
        },
        {
          "indexed": false,
          "internalType": "address",
          "name": "sender",
          "type": "address"
        },
        {
          "indexed": false,
          "internalType": "uint256",
          "name": "amount",
          "type": "uint256"
        }
      ],
      "name": "ShipmentCreated",
      "type": "event"
    },
    {
      "anonymous": false,
      "inputs": [
        {
          "indexed": false,
          "internalType": "string",
          "name": "shipmentId",
          "type": "string"
        },
        {
          "indexed": false,
          "internalType": "address",
          "name": "driver",
          "type": "address"
        },
        {
          "indexed": false,
          "internalType": "uint256",
          "name": "amountReleased",
          "type": "uint256"
        }
      ],
      "name": "ShipmentDelivered",
      "type": "event"
    },
    {
      "anonymous": false,
      "inputs": [
        {
          "indexed": false,
          "internalType": "string",
          "name": "shipmentId",
          "type": "string"
        },
        {
          "indexed": false,
          "internalType": "address",
          "name": "driver",
          "type": "address"
        }
      ],
      "name": "ShipmentPickedUp",
      "type": "event"
    },
    {
      "inputs": [
        {
          "internalType": "string",
          "name": "_shipmentId",
          "type": "string"
        }
      ],
      "name": "confirmDelivery",
      "outputs": [],
      "stateMutability": "nonpayable",
      "type": "function"
    },
    {
      "inputs": [
        {
          "internalType": "string",
          "name": "_shipmentId",
          "type": "string"
        }
      ],
      "name": "confirmPickup",
      "outputs": [],
      "stateMutability": "nonpayable",
      "type": "function"
    },
    {
      "inputs": [
        {
          "internalType": "string",
          "name": "_shipmentId",
          "type": "string"
        },
        {
          "internalType": "address",
          "name": "_driver",
          "type": "address"
        }
      ],
      "name": "createShipment",
      "outputs": [],
      "stateMutability": "payable",
      "type": "function"
    },
    {
      "inputs": [
        {
          "internalType": "string",
          "name": "_shipmentId",
          "type": "string"
        }
      ],
      "name": "getShipment",
      "outputs": [
        {
          "components": [
            {
              "internalType": "address",
              "name": "sender",
              "type": "address"
            },
            {
              "internalType": "address",
              "name": "driver",
              "type": "address"
            },
            {
              "internalType": "uint256",
              "name": "amount",
              "type": "uint256"
            },
            {
              "internalType": "enum DeliveryEscrow.ShipmentStatus",
              "name": "status",
              "type": "uint8"
            },
            {
              "internalType": "bool",
              "name": "exists",
              "type": "bool"
            }
          ],
          "internalType": "struct DeliveryEscrow.Shipment",
          "name": "",
          "type": "tuple"
        }
      ],
      "stateMutability": "view",
      "type": "function"
    },
    {
      "inputs": [
        {
          "internalType": "string",
          "name": "",
          "type": "string"
        }
      ],
      "name": "shipments",
      "outputs": [
        {
          "internalType": "address",
          "name": "sender",
          "type": "address"
        },
        {
          "internalType": "address",
          "name": "driver",
          "type": "address"
        },
        {
          "internalType": "uint256",
          "name": "amount",
          "type": "uint256"
        },
        {
          "internalType": "enum DeliveryEscrow.ShipmentStatus",
          "name": "status",
          "type": "uint8"
        },
        {
          "internalType": "bool",
          "name": "exists",
          "type": "bool"
        }
      ],
      "stateMutability": "view",
      "type": "function"
    }
  ],
  "bytecode": "0x608060405234801561001057600080fd5b5061141b806100206000396000f3fe60806040526004361061004a5760003560e01c80635ceaef5b1461004f57806394b4a21914610090578063a4506460146100ac578063a4a2deeb146100d5578063da34f3d5146100fe575b600080fd5b34801561005b57600080fd5b5061007660048036038101906100719190610c76565b61013b565b604051610087959493929190610dab565b60405180910390f35b6100aa60048036038101906100a59190610e2a565b6101e1565b005b3480156100b857600080fd5b506100d360048036038101906100ce9190610c76565b610444565b005b3480156100e157600080fd5b506100fc60048036038101906100f79190610c76565b610783565b005b34801561010a57600080fd5b5061012560048036038101906101209190610c76565b610969565b6040516101329190610f2a565b60405180910390f35b6000818051602081018201805184825260208301602085012081835280955050505050506000915090508060000160009054906101000a900473ffffffffffffffffffffffffffffffffffffffff16908060010160009054906101000a900473ffffffffffffffffffffffffffffffffffffffff16908060020154908060030160009054906101000a900460ff16908060030160019054906101000a900460ff16905085565b6000826040516101f19190610fb6565b908152602001604051809103902060030160019054906101000a900460ff1615610250576040517f08c379a00000000000000000000000000000000000000000000000000000000081526004016102479061102a565b60405180910390fd5b60003411610293576040517f08c379a000000000000000000000000000000000000000000000000000000000815260040161028a90611096565b60405180910390fd5b6040518060a001604052803373ffffffffffffffffffffffffffffffffffffffff1681526020018273ffffffffffffffffffffffffffffffffffffffff168152602001348152602001600060028111156102f0576102ef610d19565b5b81526020016001151581525060008360405161030c9190610fb6565b908152602001604051809103902060008201518160000160006101000a81548173ffffffffffffffffffffffffffffffffffffffff021916908373ffffffffffffffffffffffffffffffffffffffff16021790555060208201518160010160006101000a81548173ffffffffffffffffffffffffffffffffffffffff021916908373ffffffffffffffffffffffffffffffffffffffff1602179055506040820151816002015560608201518160030160006101000a81548160ff021916908360028111156103dd576103dc610d19565b5b021790555060808201518160030160016101000a81548160ff0219169083151502179055509050507f29ce2d41041a84f2d50443ae877a29c6f7eb7beac1e29cbeda448e088e3e8ea4823334604051610438939291906110ef565b60405180910390a15050565b600080826040516104559190610fb6565b908152602001604051809103902090508060030160019054906101000a900460ff166104b6576040517f08c379a00000000000000000000000000000000000000000000000000000000081526004016104ad90611179565b60405180910390fd5b8060010160009054906101000a900473ffffffffffffffffffffffffffffffffffffffff1673ffffffffffffffffffffffffffffffffffffffff163373ffffffffffffffffffffffffffffffffffffffff16148061056357508060000160009054906101000a900473ffffffffffffffffffffffffffffffffffffffff1673ffffffffffffffffffffffffffffffffffffffff163373ffffffffffffffffffffffffffffffffffffffff16145b6105a2576040517f08c379a0000000000000000000000000000000000000000000000000000000008152600401610599906111e5565b60405180910390fd5b600160028111156105b6576105b5610d19565b5b8160030160009054906101000a900460ff1660028111156105da576105d9610d19565b5b1461061a576040517f08c379a000000000000000000000000000000000000000000000000000000000815260040161061190611251565b60405180910390fd5b60028160030160006101000a81548160ff0219169083600281111561064257610641610d19565b5b021790555060008160010160009054906101000a900473ffffffffffffffffffffffffffffffffffffffff1673ffffffffffffffffffffffffffffffffffffffff168260020154604051610695906112a2565b60006040518083038185875af1925050503d80600081146106d2576040519150601f19603f3d011682016040523d82523d6000602084013e6106d7565b606091505b505090508061071b576040517f08c379a000000000000000000000000000000000000000000000000000000000815260040161071290611303565b60405180910390fd5b7f0247ea536ce93cfc5bfe2751c8cb79e1e1df0c04069c46a823cde42e867b9a91838360010160009054906101000a900473ffffffffffffffffffffffffffffffffffffffff168460020154604051610776939291906110ef565b60405180910390a1505050565b600080826040516107949190610fb6565b908152602001604051809103902090508060030160019054906101000a900460ff166107f5576040517f08c379a00000000000000000000000000000000000000000000000000000000081526004016107ec90611179565b60405180910390fd5b8060010160009054906101000a900473ffffffffffffffffffffffffffffffffffffffff1673ffffffffffffffffffffffffffffffffffffffff163373ffffffffffffffffffffffffffffffffffffffff1614610887576040517f08c379a000000000000000000000000000000000000000000000000000000000815260040161087e90611395565b60405180910390fd5b6000600281111561089b5761089a610d19565b5b8160030160009054906101000a900460ff1660028111156108bf576108be610d19565b5b146108ff576040517f08c379a00000000000000000000000000000000000000000000000000000000081526004016108f690611251565b60405180910390fd5b60018160030160006101000a81548160ff0219169083600281111561092757610926610d19565b5b02179055507f6c433eb975fa27028d6ae615e1a31e2a23a141ecff598ed9efba5d21f1dae214823360405161095d9291906113b5565b60405180910390a15050565b610971610aad565b6000826040516109819190610fb6565b90815260200160405180910390206040518060a00160405290816000820160009054906101000a900473ffffffffffffffffffffffffffffffffffffffff1673ffffffffffffffffffffffffffffffffffffffff1673ffffffffffffffffffffffffffffffffffffffff1681526020016001820160009054906101000a900473ffffffffffffffffffffffffffffffffffffffff1673ffffffffffffffffffffffffffffffffffffffff1673ffffffffffffffffffffffffffffffffffffffff168152602001600282015481526020016003820160009054906101000a900460ff166002811115610a7557610a74610d19565b5b6002811115610a8757610a86610d19565b5b81526020016003820160019054906101000a900460ff1615151515815250509050919050565b6040518060a00160405280600073ffffffffffffffffffffffffffffffffffffffff168152602001600073ffffffffffffffffffffffffffffffffffffffff1681526020016000815260200160006002811115610b0d57610b0c610d19565b5b81526020016000151581525090565b6000604051905090565b600080fd5b600080fd5b600080fd5b600080fd5b6000601f19601f8301169050919050565b7f4e487b7100000000000000000000000000000000000000000000000000000000600052604160045260246000fd5b610b8382610b3a565b810181811067ffffffffffffffff82111715610ba257610ba1610b4b565b5b80604052505050565b6000610bb5610b1c565b9050610bc18282610b7a565b919050565b600067ffffffffffffffff821115610be157610be0610b4b565b5b610bea82610b3a565b9050602081019050919050565b82818337600083830152505050565b6000610c19610c1484610bc6565b610bab565b905082815260208101848484011115610c3557610c34610b35565b5b610c40848285610bf7565b509392505050565b600082601f830112610c5d57610c5c610b30565b5b8135610c6d848260208601610c06565b91505092915050565b600060208284031215610c8c57610c8b610b26565b5b600082013567ffffffffffffffff811115610caa57610ca9610b2b565b5b610cb684828501610c48565b91505092915050565b600073ffffffffffffffffffffffffffffffffffffffff82169050919050565b6000610cea82610cbf565b9050919050565b610cfa81610cdf565b82525050565b6000819050919050565b610d1381610d00565b82525050565b7f4e487b7100000000000000000000000000000000000000000000000000000000600052602160045260246000fd5b60038110610d5957610d58610d19565b5b50565b6000819050610d6a82610d48565b919050565b6000610d7a82610d5c565b9050919050565b610d8a81610d6f565b82525050565b60008115159050919050565b610da581610d90565b82525050565b600060a082019050610dc06000830188610cf1565b610dcd6020830187610cf1565b610dda6040830186610d0a565b610de76060830185610d81565b610df46080830184610d9c565b9695505050505050565b610e0781610cdf565b8114610e1257600080fd5b50565b600081359050610e2481610dfe565b92915050565b60008060408385031215610e4157610e40610b26565b5b600083013567ffffffffffffffff811115610e5f57610e5e610b2b565b5b610e6b85828601610c48565b9250506020610e7c85828601610e15565b9150509250929050565b610e8f81610cdf565b82525050565b610e9e81610d00565b82525050565b610ead81610d6f565b82525050565b610ebc81610d90565b82525050565b60a082016000820151610ed86000850182610e86565b506020820151610eeb6020850182610e86565b506040820151610efe6040850182610e95565b506060820151610f116060850182610ea4565b506080820151610f246080850182610eb3565b50505050565b600060a082019050610f3f6000830184610ec2565b92915050565b600081519050919050565b600081905092915050565b60005b83811015610f79578082015181840152602081019050610f5e565b60008484015250505050565b6000610f9082610f45565b610f9a8185610f50565b9350610faa818560208601610f5b565b80840191505092915050565b6000610fc28284610f85565b915081905092915050565b600082825260208201905092915050565b7f536869706d656e7420494420616c726561647920657869737473000000000000600082015250565b6000611014601a83610fcd565b915061101f82610fde565b602082019050919050565b6000602082019050818103600083015261104381611007565b9050919050565b7f416d6f756e74206d7573742062652067726561746572207468616e2030000000600082015250565b6000611080601d83610fcd565b915061108b8261104a565b602082019050919050565b600060208201905081810360008301526110af81611073565b9050919050565b60006110c182610f45565b6110cb8185610fcd565b93506110db818560208601610f5b565b6110e481610b3a565b840191505092915050565b6000606082019050818103600083015261110981866110b6565b90506111186020830185610cf1565b6111256040830184610d0a565b949350505050565b7f536869706d656e7420646f6573206e6f74206578697374000000000000000000600082015250565b6000611163601783610fcd565b915061116e8261112d565b602082019050919050565b6000602082019050818103600083015261119281611156565b9050919050565b7f556e617574686f72697a65640000000000000000000000000000000000000000600082015250565b60006111cf600c83610fcd565b91506111da82611199565b602082019050919050565b600060208201905081810360008301526111fe816111c2565b9050919050565b7f496e76616c696420737461747573207472616e736974696f6e00000000000000600082015250565b600061123b601983610fcd565b915061124682611205565b602082019050919050565b6000602082019050818103600083015261126a8161122e565b9050919050565b600081905092915050565b50565b600061128c600083611271565b91506112978261127c565b600082019050919050565b60006112ad8261127f565b9150819050919050565b7f5472616e73666572206661696c65640000000000000000000000000000000000600082015250565b60006112ed600f83610fcd565b91506112f8826112b7565b602082019050919050565b6000602082019050818103600083015261131c816112e0565b9050919050565b7f4f6e6c792061737369676e6564206472697665722063616e20636f6e6669726d60008201527f207069636b757000000000000000000000000000000000000000000000000000602082015250565b600061137f602783610fcd565b915061138a82611323565b604082019050919050565b600060208201905081810360008301526113ae81611372565b9050919050565b600060408201905081810360008301526113cf81856110b6565b90506113de6020830184610cf1565b939250505056fea26469706673582212204c92bb8977072acf998ff0839e53f3ba4a4ef8fee5a143b4ef6e3fc05c02c0cd64736f6c63430008130033",
  "linkReferences": {},
  "deployedLinkReferences": {}
}